{
  "_format": "hh-sol-artifact-1",
  "contractName": "Voting",
  "sourceName": "contracts/Voting.sol",
  "abi": [
    {
      "anonymous": false,
      "inputs": [
        {
          "indexed": true,
          "internalType": "address",
          "name": "voter",
          "type": "address"
        },
        {
          "indexed": true,
          "internalType": "uint256",
          "name": "proposalId",
          "type": "uint256"
        },
        {
          "indexed": true,
          "internalType": "uint256",
          "name": "optionId",
          "type": "uint256"
        },
        {
          "indexed": false,
          "internalType": "string",
          "name": "txHash",
          "type": "string"
        },
        {
          "indexed": false,
          "internalType": "uint256",
          "name": "votedAt",
          "type": "uint256"
        }
      ],
      "name": "Voted",
      "type": "event"
    },
    {
      "inputs": [
        {
          "internalType": "address",
          "name": "",
          "type": "address"
        },
        {
          "internalType": "uint256",
          "name": "",
          "type": "uint256"
        }
      ],
      "name": "hasVoted",
      "outputs": [
        {
          "internalType": "bool",
          "name": "",
          "type": "bool"
        }
      ],
      "stateMutability": "view",
      "type": "function"
    },
    {
      "inputs": [
        {
          "internalType": "uint256",
          "name": "proposalId",
          "type": "uint256"
        },
        {
          "internalType": "uint256",
          "name": "optionId",
          "type": "uint256"
        }
      ],
      "name": "vote",
      "outputs": [],
      "stateMutability": "nonpayable",
      "type": "function"
    }
  ],
  "bytecode": "0x6080604052348015600f57600080fd5b506104ef8061001f6000396000f3fe608060405234801561001057600080fd5b50600436106100365760003560e01c8063425458251461003b578063b384abef1461006b575b600080fd5b610055600480360381019061005091906102c8565b610087565b6040516100629190610323565b60405180910390f35b6100856004803603810190610080919061033e565b6100b6565b005b60006020528160005260406000206020528060005260406000206000915091509054906101000a900460ff1681565b6000803373ffffffffffffffffffffffffffffffffffffffff1673ffffffffffffffffffffffffffffffffffffffff168152602001908152602001600020600083815260200190815260200160002060009054906101000a900460ff1615610153576040517f08c379a000000000000000000000000000000000000000000000000000000000815260040161014a906103db565b60405180910390fd5b60016000803373ffffffffffffffffffffffffffffffffffffffff1673ffffffffffffffffffffffffffffffffffffffff168152602001908152602001600020600084815260200190815260200160002060006101000a81548160ff02191690831515021790555080823373ffffffffffffffffffffffffffffffffffffffff167f40eff48d806ecdac8e2315a0916a4ff824a9c18df2eca1805b2a7dd4faef7ead6101fd610218565b4260405161020c929190610489565b60405180910390a45050565b606060405180602001604052806000815250905090565b600080fd5b600073ffffffffffffffffffffffffffffffffffffffff82169050919050565b600061025f82610234565b9050919050565b61026f81610254565b811461027a57600080fd5b50565b60008135905061028c81610266565b92915050565b6000819050919050565b6102a581610292565b81146102b057600080fd5b50565b6000813590506102c28161029c565b92915050565b600080604083850312156102df576102de61022f565b5b60006102ed8582860161027d565b92505060206102fe858286016102b3565b9150509250929050565b60008115159050919050565b61031d81610308565b82525050565b60006020820190506103386000830184610314565b92915050565b600080604083850312156103555761035461022f565b5b6000610363858286016102b3565b9250506020610374858286016102b3565b9150509250929050565b600082825260208201905092915050565b7f416c726561647920766f746564206f6e20746869732070726f706f73616c0000600082015250565b60006103c5601e8361037e565b91506103d08261038f565b602082019050919050565b600060208201905081810360008301526103f4816103b8565b9050919050565b600081519050919050565b60005b83811015610424578082015181840152602081019050610409565b60008484015250505050565b6000601f19601f8301169050919050565b600061044c826103fb565b610456818561037e565b9350610466818560208601610406565b61046f81610430565b840191505092915050565b61048381610292565b82525050565b600060408201905081810360008301526104a38185610441565b90506104b2602083018461047a565b939250505056fea2646970667358221220836ea748f41ae00848aa7adb6e6e2eab1b0225ebbd8787169f70de909d8fa2dd64736f6c634300081e0033",
  "linkReferences": {},
  "deployedLinkReferences": {}
}