{
  "_format": "hh-sol-artifact-1",
  "contractName": "Voting",
  "sourceName": "contracts/Voting.sol",
  "abi": [
    {
      "anonymous": false,
      "inputs": [
        {
          "indexed": true,
          "internalType": "address",
          "name": "voter",
          "type": "address"
        },
        {
          "indexed": true,
          "internalType": "uint256",
          "name": "proposalId",
          "type": "uint256"
        },
        {
          "indexed": true,
          "internalType": "uint256",
          "name": "optionId",
          "type": "uint256"
        },
        {
          "indexed": false,
          "internalType": "uint256",
          "name": "votedAt",
          "type": "uint256"
        }
      ],
      "name": "Voted",
      "type": "event"
    },
    {
      "inputs": [
        {
          "internalType": "address",
          "name": "",
          "type": "address"
        },
        {
          "internalType": "uint256",
          "name": "",
          "type": "uint256"
        }
      ],
      "name": "hasVoted",
      "outputs": [
        {
          "internalType": "bool",
          "name": "",
          "type": "bool"
        }
      ],
      "stateMutability": "view",
      "type": "function"
    },
    {
      "inputs": [
        {
          "internalType": "uint256",
          "name": "proposalId",
          "type": "uint256"
        },
        {
          "internalType": "uint256",
          "name": "optionId",
          "type": "uint256"
        }
      ],
      "name": "vote",
      "outputs": [],
      "stateMutability": "nonpayable",
      "type": "function"
    }
  ],
  "bytecode": "0x6080604052348015600f57600080fd5b5061043b8061001f6000396000f3fe608060405234801561001057600080fd5b50600436106100365760003560e01c8063425458251461003b578063b384abef1461006b575b600080fd5b610055600480360381019061005091906102a8565b610087565b6040516100629190610303565b60405180910390f35b6100856004803603810190610080919061031e565b6100b6565b005b60006020528160005260406000206020528060005260406000206000915091509054906101000a900460ff1681565b6000803373ffffffffffffffffffffffffffffffffffffffff1673ffffffffffffffffffffffffffffffffffffffff168152602001908152602001600020600083815260200190815260200160002060009054906101000a900460ff1615610153576040517f08c379a000000000000000000000000000000000000000000000000000000000815260040161014a906103bb565b60405180910390fd5b60016000803373ffffffffffffffffffffffffffffffffffffffff1673ffffffffffffffffffffffffffffffffffffffff168152602001908152602001600020600084815260200190815260200160002060006101000a81548160ff02191690831515021790555080823373ffffffffffffffffffffffffffffffffffffffff167fc32b42768a47a585121e9b8d7a2ab9d3f34c326a192dee11ee1732e3d18313f34260405161020391906103ea565b60405180910390a45050565b600080fd5b600073ffffffffffffffffffffffffffffffffffffffff82169050919050565b600061023f82610214565b9050919050565b61024f81610234565b811461025a57600080fd5b50565b60008135905061026c81610246565b92915050565b6000819050919050565b61028581610272565b811461029057600080fd5b50565b6000813590506102a28161027c565b92915050565b600080604083850312156102bf576102be61020f565b5b60006102cd8582860161025d565b92505060206102de85828601610293565b9150509250929050565b60008115159050919050565b6102fd816102e8565b82525050565b600060208201905061031860008301846102f4565b92915050565b600080604083850312156103355761033461020f565b5b600061034385828601610293565b925050602061035485828601610293565b9150509250929050565b600082825260208201905092915050565b7f416c726561647920766f746564206f6e20746869732070726f706f73616c0000600082015250565b60006103a5601e8361035e565b91506103b08261036f565b602082019050919050565b600060208201905081810360008301526103d481610398565b9050919050565b6103e481610272565b82525050565b60006020820190506103ff60008301846103db565b9291505056fea26469706673582212204b8c47fe07981a424899b4f8eb1b3cbce5211043ebc26f304740517b43bbba9f64736f6c634300081e0033",
  "linkReferences": {},
  "deployedLinkReferences": {}
}